{
  "_format": "hh-sol-artifact-1",
  "contractName": "SuperAppPOC",
  "sourceName": "contracts/SuperApp.sol",
  "abi": [
    {
      "inputs": [
        {
          "internalType": "contract ISuperfluid",
          "name": "host",
          "type": "address"
        },
        {
          "internalType": "contract ISuperToken",
          "name": "acceptedToken",
          "type": "address"
        },
        {
          "internalType": "address",
          "name": "receiver",
          "type": "address"
        }
      ],
      "stateMutability": "payable",
      "type": "constructor"
    },
    {
      "anonymous": false,
      "inputs": [
        {
          "indexed": false,
          "internalType": "contract ISuperToken",
          "name": "_superToken",
          "type": "address"
        },
        {
          "indexed": false,
          "internalType": "string",
          "name": "message",
          "type": "string"
        },
        {
          "indexed": false,
          "internalType": "address",
          "name": "sender",
          "type": "address"
        },
        {
          "indexed": false,
          "internalType": "uint256",
          "name": "rate",
          "type": "uint256"
        }
      ],
      "name": "StreamData",
      "type": "event"
    },
    {
      "anonymous": false,
      "inputs": [
        {
          "indexed": false,
          "internalType": "contract ISuperToken",
          "name": "_superToken",
          "type": "address"
        },
        {
          "indexed": false,
          "internalType": "string",
          "name": "message",
          "type": "string"
        }
      ],
      "name": "StreamInitiated",
      "type": "event"
    },
    {
      "inputs": [],
      "name": "CFA_ID",
      "outputs": [
        {
          "internalType": "bytes32",
          "name": "",
          "type": "bytes32"
        }
      ],
      "stateMutability": "view",
      "type": "function"
    },
    {
      "inputs": [],
      "name": "_receiver",
      "outputs": [
        {
          "internalType": "address",
          "name": "",
          "type": "address"
        }
      ],
      "stateMutability": "view",
      "type": "function"
    },
    {
      "inputs": [
        {
          "internalType": "contract ISuperToken",
          "name": "_superToken",
          "type": "address"
        },
        {
          "internalType": "address",
          "name": "_agreementClass",
          "type": "address"
        },
        {
          "internalType": "bytes32",
          "name": "",
          "type": "bytes32"
        },
        {
          "internalType": "bytes",
          "name": "",
          "type": "bytes"
        },
        {
          "internalType": "bytes",
          "name": "",
          "type": "bytes"
        },
        {
          "internalType": "bytes",
          "name": "_ctx",
          "type": "bytes"
        }
      ],
      "name": "afterAgreementCreated",
      "outputs": [
        {
          "internalType": "bytes",
          "name": "newCtx",
          "type": "bytes"
        }
      ],
      "stateMutability": "nonpayable",
      "type": "function"
    },
    {
      "inputs": [
        {
          "internalType": "contract ISuperToken",
          "name": "_superToken",
          "type": "address"
        },
        {
          "internalType": "address",
          "name": "_agreementClass",
          "type": "address"
        },
        {
          "internalType": "bytes32",
          "name": "",
          "type": "bytes32"
        },
        {
          "internalType": "bytes",
          "name": "",
          "type": "bytes"
        },
        {
          "internalType": "bytes",
          "name": "",
          "type": "bytes"
        },
        {
          "internalType": "bytes",
          "name": "_ctx",
          "type": "bytes"
        }
      ],
      "name": "afterAgreementTerminated",
      "outputs": [
        {
          "internalType": "bytes",
          "name": "newCtx",
          "type": "bytes"
        }
      ],
      "stateMutability": "nonpayable",
      "type": "function"
    },
    {
      "inputs": [
        {
          "internalType": "contract ISuperToken",
          "name": "_superToken",
          "type": "address"
        },
        {
          "internalType": "address",
          "name": "_agreementClass",
          "type": "address"
        },
        {
          "internalType": "bytes32",
          "name": "",
          "type": "bytes32"
        },
        {
          "internalType": "bytes",
          "name": "",
          "type": "bytes"
        },
        {
          "internalType": "bytes",
          "name": "",
          "type": "bytes"
        },
        {
          "internalType": "bytes",
          "name": "_ctx",
          "type": "bytes"
        }
      ],
      "name": "afterAgreementUpdated",
      "outputs": [
        {
          "internalType": "bytes",
          "name": "newCtx",
          "type": "bytes"
        }
      ],
      "stateMutability": "nonpayable",
      "type": "function"
    },
    {
      "inputs": [
        {
          "internalType": "address",
          "name": "owner",
          "type": "address"
        },
        {
          "internalType": "address",
          "name": "delegate",
          "type": "address"
        }
      ],
      "name": "allowance",
      "outputs": [
        {
          "internalType": "uint256",
          "name": "",
          "type": "uint256"
        }
      ],
      "stateMutability": "view",
      "type": "function"
    },
    {
      "inputs": [
        {
          "internalType": "address",
          "name": "delegate",
          "type": "address"
        },
        {
          "internalType": "uint256",
          "name": "numTokens",
          "type": "uint256"
        }
      ],
      "name": "approve",
      "outputs": [
        {
          "internalType": "bool",
          "name": "",
          "type": "bool"
        }
      ],
      "stateMutability": "nonpayable",
      "type": "function"
    },
    {
      "inputs": [
        {
          "internalType": "contract ISuperToken",
          "name": "",
          "type": "address"
        },
        {
          "internalType": "address",
          "name": "",
          "type": "address"
        },
        {
          "internalType": "bytes32",
          "name": "",
          "type": "bytes32"
        },
        {
          "internalType": "bytes",
          "name": "",
          "type": "bytes"
        },
        {
          "internalType": "bytes",
          "name": "",
          "type": "bytes"
        }
      ],
      "name": "beforeAgreementCreated",
      "outputs": [
        {
          "internalType": "bytes",
          "name": "",
          "type": "bytes"
        }
      ],
      "stateMutability": "view",
      "type": "function"
    },
    {
      "inputs": [
        {
          "internalType": "contract ISuperToken",
          "name": "",
          "type": "address"
        },
        {
          "internalType": "address",
          "name": "",
          "type": "address"
        },
        {
          "internalType": "bytes32",
          "name": "",
          "type": "bytes32"
        },
        {
          "internalType": "bytes",
          "name": "",
          "type": "bytes"
        },
        {
          "internalType": "bytes",
          "name": "",
          "type": "bytes"
        }
      ],
      "name": "beforeAgreementTerminated",
      "outputs": [
        {
          "internalType": "bytes",
          "name": "",
          "type": "bytes"
        }
      ],
      "stateMutability": "view",
      "type": "function"
    },
    {
      "inputs": [
        {
          "internalType": "contract ISuperToken",
          "name": "",
          "type": "address"
        },
        {
          "internalType": "address",
          "name": "",
          "type": "address"
        },
        {
          "internalType": "bytes32",
          "name": "",
          "type": "bytes32"
        },
        {
          "internalType": "bytes",
          "name": "",
          "type": "bytes"
        },
        {
          "internalType": "bytes",
          "name": "",
          "type": "bytes"
        }
      ],
      "name": "beforeAgreementUpdated",
      "outputs": [
        {
          "internalType": "bytes",
          "name": "",
          "type": "bytes"
        }
      ],
      "stateMutability": "view",
      "type": "function"
    },
    {
      "inputs": [],
      "name": "cfaV1",
      "outputs": [
        {
          "internalType": "contract ISuperfluid",
          "name": "host",
          "type": "address"
        },
        {
          "internalType": "contract IConstantFlowAgreementV1",
          "name": "cfa",
          "type": "address"
        }
      ],
      "stateMutability": "view",
      "type": "function"
    },
    {
      "inputs": [
        {
          "internalType": "bytes",
          "name": "",
          "type": "bytes"
        }
      ],
      "name": "checkUpkeep",
      "outputs": [
        {
          "internalType": "bool",
          "name": "upkeepNeeded",
          "type": "bool"
        },
        {
          "internalType": "bytes",
          "name": "",
          "type": "bytes"
        }
      ],
      "stateMutability": "view",
      "type": "function"
    },
    {
      "inputs": [],
      "name": "daiAddress",
      "outputs": [
        {
          "internalType": "address",
          "name": "",
          "type": "address"
        }
      ],
      "stateMutability": "view",
      "type": "function"
    },
    {
      "inputs": [],
      "name": "daixAddress",
      "outputs": [
        {
          "internalType": "address",
          "name": "",
          "type": "address"
        }
      ],
      "stateMutability": "view",
      "type": "function"
    },
    {
      "inputs": [],
      "name": "interval",
      "outputs": [
        {
          "internalType": "uint256",
          "name": "",
          "type": "uint256"
        }
      ],
      "stateMutability": "view",
      "type": "function"
    },
    {
      "inputs": [],
      "name": "lastTimeStamp",
      "outputs": [
        {
          "internalType": "uint256",
          "name": "",
          "type": "uint256"
        }
      ],
      "stateMutability": "view",
      "type": "function"
    },
    {
      "inputs": [
        {
          "internalType": "bytes",
          "name": "",
          "type": "bytes"
        }
      ],
      "name": "performUpkeep",
      "outputs": [],
      "stateMutability": "nonpayable",
      "type": "function"
    },
    {
      "inputs": [
        {
          "internalType": "uint256",
          "name": "_amount",
          "type": "uint256"
        }
      ],
      "name": "transfer",
      "outputs": [],
      "stateMutability": "nonpayable",
      "type": "function"
    },
    {
      "inputs": [
        {
          "internalType": "contract ISuperToken",
          "name": "_superToken",
          "type": "address"
        }
      ],
      "name": "unwrap",
      "outputs": [],
      "stateMutability": "nonpayable",
      "type": "function"
    }
  ],
  "bytecode": "0x60a06040527315f0ca26781c3852f8166ed2ebce5d18265cceb7600660006101000a81548173ffffffffffffffffffffffffffffffffffffffff021916908373ffffffffffffffffffffffffffffffffffffffff160217905550735d8b4c2554aeb7e86f387b4d6c00ac33499ed01f600760006101000a81548173ffffffffffffffffffffffffffffffffffffffff021916908373ffffffffffffffffffffffffffffffffffffffff16021790555060405162002853380380620028538339818101604052810190620000d391906200056e565b600073ffffffffffffffffffffffffffffffffffffffff168373ffffffffffffffffffffffffffffffffffffffff1603620001135762000112620005ca565b5b600073ffffffffffffffffffffffffffffffffffffffff168273ffffffffffffffffffffffffffffffffffffffff1603620001535762000152620005ca565b5b600073ffffffffffffffffffffffffffffffffffffffff168173ffffffffffffffffffffffffffffffffffffffff1603620001935762000192620005ca565b5b600a608081815250504260008190555082600960006101000a81548173ffffffffffffffffffffffffffffffffffffffff021916908373ffffffffffffffffffffffffffffffffffffffff16021790555081600460006101000a81548173ffffffffffffffffffffffffffffffffffffffff021916908373ffffffffffffffffffffffffffffffffffffffff16021790555080600560006101000a81548173ffffffffffffffffffffffffffffffffffffffff021916908373ffffffffffffffffffffffffffffffffffffffff16021790555060405180604001604052808473ffffffffffffffffffffffffffffffffffffffff1681526020018473ffffffffffffffffffffffffffffffffffffffff1663b6d200de7fa9214cc96615e0085d3bb077758db69497dc2dce3b2b1e97bc93c3d18d83efd36040518263ffffffff1660e01b8152600401620002e8919062000614565b602060405180830381865afa15801562000306573d6000803e3d6000fd5b505050506040513d601f19601f820116820180604052508101906200032c919062000676565b73ffffffffffffffffffffffffffffffffffffffff16815250600160008201518160000160006101000a81548173ffffffffffffffffffffffffffffffffffffffff021916908373ffffffffffffffffffffffffffffffffffffffff16021790555060208201518160010160006101000a81548173ffffffffffffffffffffffffffffffffffffffff021916908373ffffffffffffffffffffffffffffffffffffffff16021790555090505060006420000000006408000000006410000000006404000000006401000000006001171717171790508373ffffffffffffffffffffffffffffffffffffffff1663ad3915c8826040518263ffffffff1660e01b81526004016200043c9190620006c3565b600060405180830381600087803b1580156200045757600080fd5b505af11580156200046c573d6000803e3d6000fd5b5050505050505050620006e0565b600080fd5b600073ffffffffffffffffffffffffffffffffffffffff82169050919050565b6000620004ac826200047f565b9050919050565b6000620004c0826200049f565b9050919050565b620004d281620004b3565b8114620004de57600080fd5b50565b600081519050620004f281620004c7565b92915050565b600062000505826200049f565b9050919050565b6200051781620004f8565b81146200052357600080fd5b50565b60008151905062000537816200050c565b92915050565b62000548816200049f565b81146200055457600080fd5b50565b60008151905062000568816200053d565b92915050565b6000806000606084860312156200058a57620005896200047a565b5b60006200059a86828701620004e1565b9350506020620005ad8682870162000526565b9250506040620005c08682870162000557565b9150509250925092565b7f4e487b7100000000000000000000000000000000000000000000000000000000600052600160045260246000fd5b6000819050919050565b6200060e81620005f9565b82525050565b60006020820190506200062b600083018462000603565b92915050565b60006200063e826200049f565b9050919050565b620006508162000631565b81146200065c57600080fd5b50565b600081519050620006708162000645565b92915050565b6000602082840312156200068f576200068e6200047a565b5b60006200069f848285016200065f565b91505092915050565b6000819050919050565b620006bd81620006a8565b82525050565b6000602082019050620006da6000830184620006b2565b92915050565b6080516121496200070a6000396000818161088d01528181610a1e0152610b0301526121496000f3fe608060405234801561001057600080fd5b50600436106101215760003560e01c80634585e33b116100ad578063884d1f4011610071578063884d1f4014610331578063947a36fb14610361578063d3112b2e1461037f578063d86ed3e51461039e578063dd62ed3e146103ce57610121565b80634585e33b1461026857806353c11f99146102845780635f9e7d77146102b45780636e04ff0d146102e457806375f26e631461031557610121565b8063215eed02116100f4578063215eed02146101ae578063230dbd29146101cc5780632c387275146101fc57806330d9c9151461021a5780633f3b3b271461024a57610121565b806302964ff114610126578063095ea7b31461014457806312514bba146101745780631eaf7be514610190575b600080fd5b61012e6103fe565b60405161013b9190610fa1565b60405180910390f35b61015e60048036038101906101599190611032565b610424565b60405161016b919061108d565b60405180910390f35b61018e600480360381019061018991906110a8565b6104b1565b005b6101986106a2565b6040516101a59190610fa1565b60405180910390f35b6101b66106c8565b6040516101c391906110ee565b60405180910390f35b6101e660048036038101906101e191906111d8565b6106ec565b6040516101f39190611360565b60405180910390f35b610204610822565b6040516102119190610fa1565b60405180910390f35b610234600480360381019061022f9190611382565b610848565b6040516102419190611360565b60405180910390f35b610252610885565b60405161025f919061144d565b60405180910390f35b610282600480360381019061027d9190611468565b61088b565b005b61029e600480360381019061029991906111d8565b6108cc565b6040516102ab9190611360565b60405180910390f35b6102ce60048036038101906102c99190611382565b6109db565b6040516102db9190611360565b60405180910390f35b6102fe60048036038101906102f99190611468565b610a18565b60405161030c9291906114b5565b60405180910390f35b61032f600480360381019061032a91906114e5565b610a55565b005b61034b60048036038101906103469190611382565b610ac4565b6040516103589190611360565b60405180910390f35b610369610b01565b604051610376919061144d565b60405180910390f35b610387610b25565b604051610395929190611592565b60405180910390f35b6103b860048036038101906103b391906111d8565b610b77565b6040516103c59190611360565b60405180910390f35b6103e860048036038101906103e391906115bb565b610de5565b6040516103f5919061144d565b60405180910390f35b600560009054906101000a900473ffffffffffffffffffffffffffffffffffffffff1681565b600081600860003373ffffffffffffffffffffffffffffffffffffffff1673ffffffffffffffffffffffffffffffffffffffff16815260200190815260200160002060008573ffffffffffffffffffffffffffffffffffffffff1673ffffffffffffffffffffffffffffffffffffffff168152602001908152602001600020819055506001905092915050565b600081116104f4576040517f08c379a00000000000000000000000000000000000000000000000000000000081526004016104eb9061167e565b60405180910390fd5b6000600660009054906101000a900473ffffffffffffffffffffffffffffffffffffffff1673ffffffffffffffffffffffffffffffffffffffff1663dd62ed3e33306040518363ffffffff1660e01b815260040161055392919061169e565b602060405180830381865afa158015610570573d6000803e3d6000fd5b505050506040513d601f19601f8201168201806040525081019061059491906116dc565b9050818110156105d9576040517f08c379a00000000000000000000000000000000000000000000000000000000081526004016105d090611755565b60405180910390fd5b600660009054906101000a900473ffffffffffffffffffffffffffffffffffffffff1673ffffffffffffffffffffffffffffffffffffffff166323b872dd30600560009054906101000a900473ffffffffffffffffffffffffffffffffffffffff16856040518463ffffffff1660e01b815260040161065a93929190611775565b6020604051808303816000875af1158015610679573d6000803e3d6000fd5b505050506040513d601f19601f8201168201806040525081019061069d91906117d8565b505050565b600760009054906101000a900473ffffffffffffffffffffffffffffffffffffffff1681565b7fa9214cc96615e0085d3bb077758db69497dc2dce3b2b1e97bc93c3d18d83efd381565b606089896106f982610e6c565b610738576040517f08c379a000000000000000000000000000000000000000000000000000000000815260040161072f90611851565b60405180910390fd5b61074181610ec6565b610780576040517f08c379a0000000000000000000000000000000000000000000000000000000008152600401610777906118e3565b60405180910390fd5b600160000160009054906101000a900473ffffffffffffffffffffffffffffffffffffffff1673ffffffffffffffffffffffffffffffffffffffff163373ffffffffffffffffffffffffffffffffffffffff1614610813576040517f08c379a000000000000000000000000000000000000000000000000000000000815260040161080a90611975565b60405180910390fd5b50509998505050505050505050565b600660009054906101000a900473ffffffffffffffffffffffffffffffffffffffff1681565b60606040517f08c379a000000000000000000000000000000000000000000000000000000000815260040161087c90611a07565b60405180910390fd5b60005481565b7f0000000000000000000000000000000000000000000000000000000000000000600054426108ba9190611a56565b11156108c857426000819055505b5050565b6060600160000160009054906101000a900473ffffffffffffffffffffffffffffffffffffffff1673ffffffffffffffffffffffffffffffffffffffff163373ffffffffffffffffffffffffffffffffffffffff1614610961576040517f08c379a000000000000000000000000000000000000000000000000000000000815260040161095890611975565b60405180910390fd5b61096a8a610e6c565b158061097c575061097a89610ec6565b155b156109cd5782828080601f016020809104026020016040519081016040528093929190818152602001838380828437600081840152601f19601f8201169050808301925050505050505090506109ce565b5b9998505050505050505050565b60606040517f08c379a0000000000000000000000000000000000000000000000000000000008152600401610a0f90611afc565b60405180910390fd5b600060607f000000000000000000000000000000000000000000000000000000000000000060005442610a4b9190611a56565b1191509250929050565b8073ffffffffffffffffffffffffffffffffffffffff166311bcc81e60016040518263ffffffff1660e01b8152600401610a8f9190611b57565b600060405180830381600087803b158015610aa957600080fd5b505af1158015610abd573d6000803e3d6000fd5b5050505050565b60606040517f08c379a0000000000000000000000000000000000000000000000000000000008152600401610af890611be4565b60405180910390fd5b7f000000000000000000000000000000000000000000000000000000000000000081565b60018060000160009054906101000a900473ffffffffffffffffffffffffffffffffffffffff16908060010160009054906101000a900473ffffffffffffffffffffffffffffffffffffffff16905082565b60608989610b8482610e6c565b610bc3576040517f08c379a0000000000000000000000000000000000000000000000000000000008152600401610bba90611851565b60405180910390fd5b610bcc81610ec6565b610c0b576040517f08c379a0000000000000000000000000000000000000000000000000000000008152600401610c02906118e3565b60405180910390fd5b600160000160009054906101000a900473ffffffffffffffffffffffffffffffffffffffff1673ffffffffffffffffffffffffffffffffffffffff163373ffffffffffffffffffffffffffffffffffffffff1614610c9e576040517f08c379a0000000000000000000000000000000000000000000000000000000008152600401610c9590611975565b60405180910390fd5b6000600960009054906101000a900473ffffffffffffffffffffffffffffffffffffffff1673ffffffffffffffffffffffffffffffffffffffff16633f6c923a87876040518363ffffffff1660e01b8152600401610cfd929190611c40565b600060405180830381865afa158015610d1a573d6000803e3d6000fd5b505050506040513d6000823e3d601f19601f82011682018060405250810190610d439190611fd1565b90506000816060015190507fd216744b8187244650b7fa9fe762bfd7fb25e5cc1caa73e535cfe6263fe009e28e828460c00151604051610d8593929190612087565b60405180910390a186868080601f016020809104026020016040519081016040528093929190818152602001838380828437600081840152601f19601f820116905080830192505050505050509450505050509998505050505050505050565b6000600860008473ffffffffffffffffffffffffffffffffffffffff1673ffffffffffffffffffffffffffffffffffffffff16815260200190815260200160002060008373ffffffffffffffffffffffffffffffffffffffff1673ffffffffffffffffffffffffffffffffffffffff16815260200190815260200160002054905092915050565b6000600460009054906101000a900473ffffffffffffffffffffffffffffffffffffffff1673ffffffffffffffffffffffffffffffffffffffff168273ffffffffffffffffffffffffffffffffffffffff16149050919050565b60007fa9214cc96615e0085d3bb077758db69497dc2dce3b2b1e97bc93c3d18d83efd38273ffffffffffffffffffffffffffffffffffffffff16637730599e6040518163ffffffff1660e01b8152600401602060405180830381865afa158015610f34573d6000803e3d6000fd5b505050506040513d601f19601f82011682018060405250810190610f5891906120e6565b149050919050565b600073ffffffffffffffffffffffffffffffffffffffff82169050919050565b6000610f8b82610f60565b9050919050565b610f9b81610f80565b82525050565b6000602082019050610fb66000830184610f92565b92915050565b6000604051905090565b600080fd5b600080fd5b610fd981610f80565b8114610fe457600080fd5b50565b600081359050610ff681610fd0565b92915050565b6000819050919050565b61100f81610ffc565b811461101a57600080fd5b50565b60008135905061102c81611006565b92915050565b6000806040838503121561104957611048610fc6565b5b600061105785828601610fe7565b92505060206110688582860161101d565b9150509250929050565b60008115159050919050565b61108781611072565b82525050565b60006020820190506110a2600083018461107e565b92915050565b6000602082840312156110be576110bd610fc6565b5b60006110cc8482850161101d565b91505092915050565b6000819050919050565b6110e8816110d5565b82525050565b600060208201905061110360008301846110df565b92915050565b600061111482610f80565b9050919050565b61112481611109565b811461112f57600080fd5b50565b6000813590506111418161111b565b92915050565b611150816110d5565b811461115b57600080fd5b50565b60008135905061116d81611147565b92915050565b600080fd5b600080fd5b600080fd5b60008083601f84011261119857611197611173565b5b8235905067ffffffffffffffff8111156111b5576111b4611178565b5b6020830191508360018202830111156111d1576111d061117d565b5b9250929050565b600080600080600080600080600060c08a8c0312156111fa576111f9610fc6565b5b60006112088c828d01611132565b99505060206112198c828d01610fe7565b985050604061122a8c828d0161115e565b97505060608a013567ffffffffffffffff81111561124b5761124a610fcb565b5b6112578c828d01611182565b965096505060808a013567ffffffffffffffff81111561127a57611279610fcb565b5b6112868c828d01611182565b945094505060a08a013567ffffffffffffffff8111156112a9576112a8610fcb565b5b6112b58c828d01611182565b92509250509295985092959850929598565b600081519050919050565b600082825260208201905092915050565b60005b838110156113015780820151818401526020810190506112e6565b83811115611310576000848401525b50505050565b6000601f19601f8301169050919050565b6000611332826112c7565b61133c81856112d2565b935061134c8185602086016112e3565b61135581611316565b840191505092915050565b6000602082019050818103600083015261137a8184611327565b905092915050565b600080600080600080600060a0888a0312156113a1576113a0610fc6565b5b60006113af8a828b01611132565b97505060206113c08a828b01610fe7565b96505060406113d18a828b0161115e565b955050606088013567ffffffffffffffff8111156113f2576113f1610fcb565b5b6113fe8a828b01611182565b9450945050608088013567ffffffffffffffff81111561142157611420610fcb565b5b61142d8a828b01611182565b925092505092959891949750929550565b61144781610ffc565b82525050565b6000602082019050611462600083018461143e565b92915050565b6000806020838503121561147f5761147e610fc6565b5b600083013567ffffffffffffffff81111561149d5761149c610fcb565b5b6114a985828601611182565b92509250509250929050565b60006040820190506114ca600083018561107e565b81810360208301526114dc8184611327565b90509392505050565b6000602082840312156114fb576114fa610fc6565b5b600061150984828501611132565b91505092915050565b6000819050919050565b600061153761153261152d84610f60565b611512565b610f60565b9050919050565b60006115498261151c565b9050919050565b600061155b8261153e565b9050919050565b61156b81611550565b82525050565b600061157c8261153e565b9050919050565b61158c81611571565b82525050565b60006040820190506115a76000830185611562565b6115b46020830184611583565b9392505050565b600080604083850312156115d2576115d1610fc6565b5b60006115e085828601610fe7565b92505060206115f185828601610fe7565b9150509250929050565b600082825260208201905092915050565b7f596f75206e65656420746f2073656c6c206174206c6561737420736f6d65207460008201527f6f6b656e73000000000000000000000000000000000000000000000000000000602082015250565b60006116686025836115fb565b91506116738261160c565b604082019050919050565b600060208201905081810360008301526116978161165b565b9050919050565b60006040820190506116b36000830185610f92565b6116c06020830184610f92565b9392505050565b6000815190506116d681611006565b92915050565b6000602082840312156116f2576116f1610fc6565b5b6000611700848285016116c7565b91505092915050565b7f436865636b2074686520746f6b656e20616c6c6f77616e636500000000000000600082015250565b600061173f6019836115fb565b915061174a82611709565b602082019050919050565b6000602082019050818103600083015261176e81611732565b9050919050565b600060608201905061178a6000830186610f92565b6117976020830185610f92565b6117a4604083018461143e565b949350505050565b6117b581611072565b81146117c057600080fd5b50565b6000815190506117d2816117ac565b92915050565b6000602082840312156117ee576117ed610fc6565b5b60006117fc848285016117c3565b91505092915050565b7f5265646972656374416c6c3a206e6f7420616363657074656420746f6b656e00600082015250565b600061183b601f836115fb565b915061184682611805565b602082019050919050565b6000602082019050818103600083015261186a8161182e565b9050919050565b7f5265646972656374416c6c3a206f6e6c7920434641763120737570706f72746560008201527f6400000000000000000000000000000000000000000000000000000000000000602082015250565b60006118cd6021836115fb565b91506118d882611871565b604082019050919050565b600060208201905081810360008301526118fc816118c0565b9050919050565b7f5265646972656374416c6c3a20737570706f7274206f6e6c79206f6e6520686f60008201527f7374000000000000000000000000000000000000000000000000000000000000602082015250565b600061195f6022836115fb565b915061196a82611903565b604082019050919050565b6000602082019050818103600083015261198e81611952565b9050919050565b7f556e737570706f727465642063616c6c6261636b202d204265666f726520416760008201527f7265656d656e7420437265617465640000000000000000000000000000000000602082015250565b60006119f1602f836115fb565b91506119fc82611995565b604082019050919050565b60006020820190508181036000830152611a20816119e4565b9050919050565b7f4e487b7100000000000000000000000000000000000000000000000000000000600052601160045260246000fd5b6000611a6182610ffc565b9150611a6c83610ffc565b925082821015611a7f57611a7e611a27565b5b828203905092915050565b7f556e737570706f727465642063616c6c6261636b202d20204265666f7265204160008201527f677265656d656e74205465726d696e6174656400000000000000000000000000602082015250565b6000611ae66033836115fb565b9150611af182611a8a565b604082019050919050565b60006020820190508181036000830152611b1581611ad9565b9050919050565b6000819050919050565b6000611b41611b3c611b3784611b1c565b611512565b610ffc565b9050919050565b611b5181611b26565b82525050565b6000602082019050611b6c6000830184611b48565b92915050565b7f556e737570706f727465642063616c6c6261636b202d204265666f726520416760008201527f7265656d656e7420757064617465640000000000000000000000000000000000602082015250565b6000611bce602f836115fb565b9150611bd982611b72565b604082019050919050565b60006020820190508181036000830152611bfd81611bc1565b9050919050565b82818337600083830152505050565b6000611c1f83856112d2565b9350611c2c838584611c04565b611c3583611316565b840190509392505050565b60006020820190508181036000830152611c5b818486611c13565b90509392505050565b600080fd5b7f4e487b7100000000000000000000000000000000000000000000000000000000600052604160045260246000fd5b611ca182611316565b810181811067ffffffffffffffff82111715611cc057611cbf611c69565b5b80604052505050565b6000611cd3610fbc565b9050611cdf8282611c98565b919050565b600080fd5b600060ff82169050919050565b611cff81611ce9565b8114611d0a57600080fd5b50565b600081519050611d1c81611cf6565b92915050565b600081519050611d3181610fd0565b92915050565b60007fffffffff0000000000000000000000000000000000000000000000000000000082169050919050565b611d6c81611d37565b8114611d7757600080fd5b50565b600081519050611d8981611d63565b92915050565b600080fd5b600067ffffffffffffffff821115611daf57611dae611c69565b5b611db882611316565b9050602081019050919050565b6000611dd8611dd384611d94565b611cc9565b905082815260208101848484011115611df457611df3611d8f565b5b611dff8482856112e3565b509392505050565b600082601f830112611e1c57611e1b611173565b5b8151611e2c848260208601611dc5565b91505092915050565b6000819050919050565b611e4881611e35565b8114611e5357600080fd5b50565b600081519050611e6581611e3f565b92915050565b6000611e7682610f80565b9050919050565b611e8681611e6b565b8114611e9157600080fd5b50565b600081519050611ea381611e7d565b92915050565b60006101608284031215611ec057611ebf611c64565b5b611ecb610160611cc9565b90506000611edb84828501611d0d565b6000830152506020611eef84828501611d0d565b6020830152506040611f03848285016116c7565b6040830152506060611f1784828501611d22565b6060830152506080611f2b84828501611d7a565b60808301525060a082015167ffffffffffffffff811115611f4f57611f4e611ce4565b5b611f5b84828501611e07565b60a08301525060c0611f6f848285016116c7565b60c08301525060e0611f83848285016116c7565b60e083015250610100611f9884828501611e56565b61010083015250610120611fae84828501611d22565b61012083015250610140611fc484828501611e94565b6101408301525092915050565b600060208284031215611fe757611fe6610fc6565b5b600082015167ffffffffffffffff81111561200557612004610fcb565b5b61201184828501611ea9565b91505092915050565b60006120258261153e565b9050919050565b6120358161201a565b82525050565b7f73747265616d2063726561746564000000000000000000000000000000000000600082015250565b6000612071600e836115fb565b915061207c8261203b565b602082019050919050565b600060808201905061209c600083018661202c565b81810360208301526120ad81612064565b90506120bc6040830185610f92565b6120c9606083018461143e565b949350505050565b6000815190506120e081611147565b92915050565b6000602082840312156120fc576120fb610fc6565b5b600061210a848285016120d1565b9150509291505056fea2646970667358221220b6d16ff44fc237e1fd395673611fb8df4e50228ef0c733c122b9904a8bda51c964736f6c634300080d0033",
  "linkReferences": {},
  "deployedLinkReferences": {}
}