{
  "_format": "hh-sol-artifact-1",
  "contractName": "SuperAppPOC",
  "sourceName": "contracts/SuperAppPOC.sol",
  "abi": [
    {
      "inputs": [
        {
          "internalType": "contract ISuperfluid",
          "name": "host",
          "type": "address"
        },
        {
          "internalType": "contract ISuperToken",
          "name": "acceptedToken",
          "type": "address"
        },
        {
          "internalType": "address",
          "name": "receiver",
          "type": "address"
        }
      ],
      "stateMutability": "nonpayable",
      "type": "constructor"
    },
    {
      "anonymous": false,
      "inputs": [
        {
          "indexed": false,
          "internalType": "bytes",
          "name": "newCtx",
          "type": "bytes"
        },
        {
          "indexed": false,
          "internalType": "string",
          "name": "msg",
          "type": "string"
        }
      ],
      "name": "AgreementCreated",
      "type": "event"
    },
    {
      "anonymous": false,
      "inputs": [
        {
          "indexed": true,
          "internalType": "address",
          "name": "_from",
          "type": "address"
        },
        {
          "indexed": false,
          "internalType": "int256",
          "name": "_value",
          "type": "int256"
        }
      ],
      "name": "ReturnValue",
      "type": "event"
    },
    {
      "inputs": [],
      "name": "CFA_ID",
      "outputs": [
        {
          "internalType": "bytes32",
          "name": "",
          "type": "bytes32"
        }
      ],
      "stateMutability": "view",
      "type": "function"
    },
    {
      "inputs": [],
      "name": "_receiver",
      "outputs": [
        {
          "internalType": "address",
          "name": "",
          "type": "address"
        }
      ],
      "stateMutability": "view",
      "type": "function"
    },
    {
      "inputs": [
        {
          "internalType": "contract ISuperToken",
          "name": "_superToken",
          "type": "address"
        },
        {
          "internalType": "address",
          "name": "_agreementClass",
          "type": "address"
        },
        {
          "internalType": "bytes32",
          "name": "",
          "type": "bytes32"
        },
        {
          "internalType": "bytes",
          "name": "",
          "type": "bytes"
        },
        {
          "internalType": "bytes",
          "name": "",
          "type": "bytes"
        },
        {
          "internalType": "bytes",
          "name": "_ctx",
          "type": "bytes"
        }
      ],
      "name": "afterAgreementCreated",
      "outputs": [
        {
          "internalType": "bytes",
          "name": "newCtx",
          "type": "bytes"
        }
      ],
      "stateMutability": "nonpayable",
      "type": "function"
    },
    {
      "inputs": [
        {
          "internalType": "contract ISuperToken",
          "name": "_superToken",
          "type": "address"
        },
        {
          "internalType": "address",
          "name": "_agreementClass",
          "type": "address"
        },
        {
          "internalType": "bytes32",
          "name": "",
          "type": "bytes32"
        },
        {
          "internalType": "bytes",
          "name": "",
          "type": "bytes"
        },
        {
          "internalType": "bytes",
          "name": "",
          "type": "bytes"
        },
        {
          "internalType": "bytes",
          "name": "_ctx",
          "type": "bytes"
        }
      ],
      "name": "afterAgreementTerminated",
      "outputs": [
        {
          "internalType": "bytes",
          "name": "newCtx",
          "type": "bytes"
        }
      ],
      "stateMutability": "nonpayable",
      "type": "function"
    },
    {
      "inputs": [
        {
          "internalType": "contract ISuperToken",
          "name": "_superToken",
          "type": "address"
        },
        {
          "internalType": "address",
          "name": "_agreementClass",
          "type": "address"
        },
        {
          "internalType": "bytes32",
          "name": "",
          "type": "bytes32"
        },
        {
          "internalType": "bytes",
          "name": "",
          "type": "bytes"
        },
        {
          "internalType": "bytes",
          "name": "",
          "type": "bytes"
        },
        {
          "internalType": "bytes",
          "name": "_ctx",
          "type": "bytes"
        }
      ],
      "name": "afterAgreementUpdated",
      "outputs": [
        {
          "internalType": "bytes",
          "name": "newCtx",
          "type": "bytes"
        }
      ],
      "stateMutability": "nonpayable",
      "type": "function"
    },
    {
      "inputs": [
        {
          "internalType": "contract ISuperToken",
          "name": "",
          "type": "address"
        },
        {
          "internalType": "address",
          "name": "",
          "type": "address"
        },
        {
          "internalType": "bytes32",
          "name": "",
          "type": "bytes32"
        },
        {
          "internalType": "bytes",
          "name": "",
          "type": "bytes"
        },
        {
          "internalType": "bytes",
          "name": "",
          "type": "bytes"
        }
      ],
      "name": "beforeAgreementCreated",
      "outputs": [
        {
          "internalType": "bytes",
          "name": "",
          "type": "bytes"
        }
      ],
      "stateMutability": "view",
      "type": "function"
    },
    {
      "inputs": [
        {
          "internalType": "contract ISuperToken",
          "name": "",
          "type": "address"
        },
        {
          "internalType": "address",
          "name": "",
          "type": "address"
        },
        {
          "internalType": "bytes32",
          "name": "",
          "type": "bytes32"
        },
        {
          "internalType": "bytes",
          "name": "",
          "type": "bytes"
        },
        {
          "internalType": "bytes",
          "name": "",
          "type": "bytes"
        }
      ],
      "name": "beforeAgreementTerminated",
      "outputs": [
        {
          "internalType": "bytes",
          "name": "",
          "type": "bytes"
        }
      ],
      "stateMutability": "view",
      "type": "function"
    },
    {
      "inputs": [
        {
          "internalType": "contract ISuperToken",
          "name": "",
          "type": "address"
        },
        {
          "internalType": "address",
          "name": "",
          "type": "address"
        },
        {
          "internalType": "bytes32",
          "name": "",
          "type": "bytes32"
        },
        {
          "internalType": "bytes",
          "name": "",
          "type": "bytes"
        },
        {
          "internalType": "bytes",
          "name": "",
          "type": "bytes"
        }
      ],
      "name": "beforeAgreementUpdated",
      "outputs": [
        {
          "internalType": "bytes",
          "name": "",
          "type": "bytes"
        }
      ],
      "stateMutability": "view",
      "type": "function"
    },
    {
      "inputs": [],
      "name": "cfaV1",
      "outputs": [
        {
          "internalType": "contract ISuperfluid",
          "name": "host",
          "type": "address"
        },
        {
          "internalType": "contract IConstantFlowAgreementV1",
          "name": "cfa",
          "type": "address"
        }
      ],
      "stateMutability": "view",
      "type": "function"
    }
  ],
  "bytecode": "0x60806040523480156200001157600080fd5b506040516200259338038062002593833981810160405281019062000037919062000485565b600073ffffffffffffffffffffffffffffffffffffffff168373ffffffffffffffffffffffffffffffffffffffff1614156200009c577f4e487b7100000000000000000000000000000000000000000000000000000000600052600160045260246000fd5b600073ffffffffffffffffffffffffffffffffffffffff168273ffffffffffffffffffffffffffffffffffffffff16141562000101577f4e487b7100000000000000000000000000000000000000000000000000000000600052600160045260246000fd5b600073ffffffffffffffffffffffffffffffffffffffff168173ffffffffffffffffffffffffffffffffffffffff16141562000166577f4e487b7100000000000000000000000000000000000000000000000000000000600052600160045260246000fd5b81600260006101000a81548173ffffffffffffffffffffffffffffffffffffffff021916908373ffffffffffffffffffffffffffffffffffffffff16021790555080600360006101000a81548173ffffffffffffffffffffffffffffffffffffffff021916908373ffffffffffffffffffffffffffffffffffffffff16021790555060405180604001604052808473ffffffffffffffffffffffffffffffffffffffff1681526020018473ffffffffffffffffffffffffffffffffffffffff1663b6d200de7fa9214cc96615e0085d3bb077758db69497dc2dce3b2b1e97bc93c3d18d83efd36040518263ffffffff1660e01b81526004016200026a9190620004fd565b60206040518083038186803b1580156200028357600080fd5b505afa15801562000298573d6000803e3d6000fd5b505050506040513d601f19601f82011682018060405250810190620002be919062000459565b73ffffffffffffffffffffffffffffffffffffffff168152506000808201518160000160006101000a81548173ffffffffffffffffffffffffffffffffffffffff021916908373ffffffffffffffffffffffffffffffffffffffff16021790555060208201518160010160006101000a81548173ffffffffffffffffffffffffffffffffffffffff021916908373ffffffffffffffffffffffffffffffffffffffff1602179055509050506000641000000000640400000000640100000000600117171790508373ffffffffffffffffffffffffffffffffffffffff1663ad3915c8826040518263ffffffff1660e01b8152600401620003bf91906200051a565b600060405180830381600087803b158015620003da57600080fd5b505af1158015620003ef573d6000803e3d6000fd5b505050505050505062000623565b6000815190506200040e81620005bb565b92915050565b6000815190506200042581620005d5565b92915050565b6000815190506200043c81620005ef565b92915050565b600081519050620004538162000609565b92915050565b6000602082840312156200046c57600080fd5b60006200047c8482850162000414565b91505092915050565b6000806000606084860312156200049b57600080fd5b6000620004ab8682870162000442565b9350506020620004be868287016200042b565b9250506040620004d186828701620003fd565b9150509250925092565b620004e6816200054b565b82525050565b620004f781620005b1565b82525050565b6000602082019050620005146000830184620004db565b92915050565b6000602082019050620005316000830184620004ec565b92915050565b6000620005448262000591565b9050919050565b6000819050919050565b6000620005628262000537565b9050919050565b6000620005768262000537565b9050919050565b60006200058a8262000537565b9050919050565b600073ffffffffffffffffffffffffffffffffffffffff82169050919050565b6000819050919050565b620005c68162000537565b8114620005d257600080fd5b50565b620005e08162000555565b8114620005ec57600080fd5b50565b620005fa8162000569565b81146200060657600080fd5b50565b62000614816200057d565b81146200062057600080fd5b50565b611f6080620006336000396000f3fe608060405234801561001057600080fd5b50600436106100935760003560e01c806353c11f991161006657806353c11f99146101345780635f9e7d7714610164578063884d1f4014610194578063d3112b2e146101c4578063d86ed3e5146101e357610093565b806302964ff114610098578063215eed02146100b6578063230dbd29146100d457806330d9c91514610104575b600080fd5b6100a0610213565b6040516100ad919061170f565b60405180910390f35b6100be610239565b6040516100cb919061172a565b60405180910390f35b6100ee60048036038101906100e991906113bd565b61025d565b6040516100fb919061177c565b60405180910390f35b61011e6004803603810190610119919061130d565b61039e565b60405161012b919061177c565b60405180910390f35b61014e600480360381019061014991906113bd565b6103db565b60405161015b919061177c565b60405180910390f35b61017e6004803603810190610179919061130d565b6104f5565b60405161018b919061177c565b60405180910390f35b6101ae60048036038101906101a9919061130d565b610532565b6040516101bb919061177c565b60405180910390f35b6101cc61056f565b6040516101da9291906118ee565b60405180910390f35b6101fd60048036038101906101f891906113bd565b6105c1565b60405161020a919061177c565b60405180910390f35b600360009054906101000a900473ffffffffffffffffffffffffffffffffffffffff1681565b7fa9214cc96615e0085d3bb077758db69497dc2dce3b2b1e97bc93c3d18d83efd381565b6060898961026a8261073b565b6102a9576040517f08c379a00000000000000000000000000000000000000000000000000000000081526004016102a090611937565b60405180910390fd5b6102b281610795565b6102f1576040517f08c379a00000000000000000000000000000000000000000000000000000000081526004016102e890611917565b60405180910390fd5b6000800160009054906101000a900473ffffffffffffffffffffffffffffffffffffffff1673ffffffffffffffffffffffffffffffffffffffff163373ffffffffffffffffffffffffffffffffffffffff1614610383576040517f08c379a000000000000000000000000000000000000000000000000000000000815260040161037a90611977565b60405180910390fd5b61038d858561083e565b925050509998505050505050505050565b60606040517f08c379a00000000000000000000000000000000000000000000000000000000081526004016103d2906119b7565b60405180910390fd5b60606000800160009054906101000a900473ffffffffffffffffffffffffffffffffffffffff1673ffffffffffffffffffffffffffffffffffffffff163373ffffffffffffffffffffffffffffffffffffffff161461046f576040517f08c379a000000000000000000000000000000000000000000000000000000000815260040161046690611977565b60405180910390fd5b6104788a61073b565b158061048a575061048889610795565b155b156104db5782828080601f016020809104026020016040519081016040528093929190818152602001838380828437600081840152601f19601f8201169050808301925050505050505090506104e8565b6104e5838361083e565b90505b9998505050505050505050565b60606040517f08c379a000000000000000000000000000000000000000000000000000000000815260040161052990611957565b60405180910390fd5b60606040517f08c379a000000000000000000000000000000000000000000000000000000000815260040161056690611997565b60405180910390fd5b60008060000160009054906101000a900473ffffffffffffffffffffffffffffffffffffffff16908060010160009054906101000a900473ffffffffffffffffffffffffffffffffffffffff16905082565b606089896105ce8261073b565b61060d576040517f08c379a000000000000000000000000000000000000000000000000000000000815260040161060490611937565b60405180910390fd5b61061681610795565b610655576040517f08c379a000000000000000000000000000000000000000000000000000000000815260040161064c90611917565b60405180910390fd5b6000800160009054906101000a900473ffffffffffffffffffffffffffffffffffffffff1673ffffffffffffffffffffffffffffffffffffffff163373ffffffffffffffffffffffffffffffffffffffff16146106e7576040517f08c379a00000000000000000000000000000000000000000000000000000000081526004016106de90611977565b60405180910390fd5b7fcca287dfe4847a5960fe952ecefafff401477455fec97a782dab6c6ba0f4ba848585604051610718929190611745565b60405180910390a161072a858561083e565b925050509998505050505050505050565b6000600260009054906101000a900473ffffffffffffffffffffffffffffffffffffffff1673ffffffffffffffffffffffffffffffffffffffff168273ffffffffffffffffffffffffffffffffffffffff16149050919050565b60007fa9214cc96615e0085d3bb077758db69497dc2dce3b2b1e97bc93c3d18d83efd38273ffffffffffffffffffffffffffffffffffffffff16637730599e6040518163ffffffff1660e01b815260040160206040518083038186803b1580156107fe57600080fd5b505afa158015610812573d6000803e3d6000fd5b505050506040513d601f19601f820116820180604052508101906108369190611278565b149050919050565b606082828080601f016020809104026020016040519081016040528093929190818152602001838380828437600081840152601f19601f82011690508083019250505050505050905060008060010160009054906101000a900473ffffffffffffffffffffffffffffffffffffffff1673ffffffffffffffffffffffffffffffffffffffff1663e8e7e2d1600260009054906101000a900473ffffffffffffffffffffffffffffffffffffffff16306040518363ffffffff1660e01b815260040161090a9291906117f6565b60206040518083038186803b15801561092257600080fd5b505afa158015610936573d6000803e3d6000fd5b505050506040513d601f19601f8201168201806040525081019061095a919061149c565b905060008060010160009054906101000a900473ffffffffffffffffffffffffffffffffffffffff1673ffffffffffffffffffffffffffffffffffffffff1663e6a1e888600260009054906101000a900473ffffffffffffffffffffffffffffffffffffffff1630600360009054906101000a900473ffffffffffffffffffffffffffffffffffffffff166040518463ffffffff1660e01b8152600401610a039392919061181f565b60806040518083038186803b158015610a1b57600080fd5b505afa158015610a2f573d6000803e3d6000fd5b505050506040513d601f19601f82011682018060405250810190610a5391906114c5565b505091505060008183610a669190611a5a565b90506000600b0b81600b0b1415610adc57610ad58430600360009054906101000a900473ffffffffffffffffffffffffffffffffffffffff16600260009054906101000a900473ffffffffffffffffffffffffffffffffffffffff166000610bba90949392919063ffffffff16565b9350610bb1565b6000600b0b82600b0b14610b4f57610b4884600360009054906101000a900473ffffffffffffffffffffffffffffffffffffffff16600260009054906101000a900473ffffffffffffffffffffffffffffffffffffffff16846000610d9490949392919063ffffffff16565b9350610bb0565b610bad84600360009054906101000a900473ffffffffffffffffffffffffffffffffffffffff16600260009054906101000a900473ffffffffffffffffffffffffffffffffffffffff16846000610f6e90949392919063ffffffff16565b93505b5b50505092915050565b60608560000160009054906101000a900473ffffffffffffffffffffffffffffffffffffffff1673ffffffffffffffffffffffffffffffffffffffff16634329d2938760010160009054906101000a900473ffffffffffffffffffffffffffffffffffffffff1663b4b333c660e01b858888600067ffffffffffffffff811115610c6d577f4e487b7100000000000000000000000000000000000000000000000000000000600052604160045260246000fd5b6040519080825280601f01601f191660200182016040528015610c9f5781602001600182028036833780820191505090505b50604051602401610cb39493929190611856565b604051602081830303815290604052907bffffffffffffffffffffffffffffffffffffffffffffffffffffffff19166020820180517bffffffffffffffffffffffffffffffffffffffffffffffffffffffff8381831617835250505050886040518463ffffffff1660e01b8152600401610d2f9392919061179e565b600060405180830381600087803b158015610d4957600080fd5b505af1158015610d5d573d6000803e3d6000fd5b505050506040513d6000823e3d601f19601f82011682018060405250810190610d8691906112a1565b508091505095945050505050565b60608560000160009054906101000a900473ffffffffffffffffffffffffffffffffffffffff1673ffffffffffffffffffffffffffffffffffffffff16634329d2938760010160009054906101000a900473ffffffffffffffffffffffffffffffffffffffff166350209a6260e01b868887600067ffffffffffffffff811115610e47577f4e487b7100000000000000000000000000000000000000000000000000000000600052604160045260246000fd5b6040519080825280601f01601f191660200182016040528015610e795781602001600182028036833780820191505090505b50604051602401610e8d94939291906118a2565b604051602081830303815290604052907bffffffffffffffffffffffffffffffffffffffffffffffffffffffff19166020820180517bffffffffffffffffffffffffffffffffffffffffffffffffffffffff8381831617835250505050886040518463ffffffff1660e01b8152600401610f099392919061179e565b600060405180830381600087803b158015610f2357600080fd5b505af1158015610f37573d6000803e3d6000fd5b505050506040513d6000823e3d601f19601f82011682018060405250810190610f6091906112a1565b508091505095945050505050565b60608560000160009054906101000a900473ffffffffffffffffffffffffffffffffffffffff1673ffffffffffffffffffffffffffffffffffffffff16634329d2938760010160009054906101000a900473ffffffffffffffffffffffffffffffffffffffff166362fc305e60e01b868887600067ffffffffffffffff811115611021577f4e487b7100000000000000000000000000000000000000000000000000000000600052604160045260246000fd5b6040519080825280601f01601f1916602001820160405280156110535781602001600182028036833780820191505090505b5060405160240161106794939291906118a2565b604051602081830303815290604052907bffffffffffffffffffffffffffffffffffffffffffffffffffffffff19166020820180517bffffffffffffffffffffffffffffffffffffffffffffffffffffffff8381831617835250505050886040518463ffffffff1660e01b81526004016110e39392919061179e565b600060405180830381600087803b1580156110fd57600080fd5b505af1158015611111573d6000803e3d6000fd5b505050506040513d6000823e3d601f19601f8201168201806040525081019061113a91906112a1565b508091505095945050505050565b600061115b611156846119fc565b6119d7565b90508281526020810184848401111561117357600080fd5b61117e848285611bde565b509392505050565b60008135905061119581611eb7565b92915050565b6000813590506111aa81611ece565b92915050565b6000815190506111bf81611ece565b92915050565b60008083601f8401126111d757600080fd5b8235905067ffffffffffffffff8111156111f057600080fd5b60208301915083600182028301111561120857600080fd5b9250929050565b600082601f83011261122057600080fd5b8151611230848260208601611148565b91505092915050565b60008135905061124881611ee5565b92915050565b60008151905061125d81611efc565b92915050565b60008151905061127281611f13565b92915050565b60006020828403121561128a57600080fd5b6000611298848285016111b0565b91505092915050565b600080604083850312156112b457600080fd5b600083015167ffffffffffffffff8111156112ce57600080fd5b6112da8582860161120f565b925050602083015167ffffffffffffffff8111156112f757600080fd5b6113038582860161120f565b9150509250929050565b600080600080600080600060a0888a03121561132857600080fd5b60006113368a828b01611239565b97505060206113478a828b01611186565b96505060406113588a828b0161119b565b955050606088013567ffffffffffffffff81111561137557600080fd5b6113818a828b016111c5565b9450945050608088013567ffffffffffffffff8111156113a057600080fd5b6113ac8a828b016111c5565b925092505092959891949750929550565b600080600080600080600080600060c08a8c0312156113db57600080fd5b60006113e98c828d01611239565b99505060206113fa8c828d01611186565b985050604061140b8c828d0161119b565b97505060608a013567ffffffffffffffff81111561142857600080fd5b6114348c828d016111c5565b965096505060808a013567ffffffffffffffff81111561145357600080fd5b61145f8c828d016111c5565b945094505060a08a013567ffffffffffffffff81111561147e57600080fd5b61148a8c828d016111c5565b92509250509295985092959850929598565b6000602082840312156114ae57600080fd5b60006114bc8482850161124e565b91505092915050565b600080600080608085870312156114db57600080fd5b60006114e987828801611263565b94505060206114fa8782880161124e565b935050604061150b87828801611263565b925050606061151c87828801611263565b91505092959194509250565b61153181611ada565b82525050565b61154081611aec565b82525050565b60006115528385611a38565b935061155f838584611bcf565b61156883611ca0565b840190509392505050565b600061157e82611a2d565b6115888185611a38565b9350611598818560208601611bde565b6115a181611ca0565b840191505092915050565b6115b581611b3f565b82525050565b6115c481611b63565b82525050565b6115d381611b87565b82525050565b6115e281611bab565b82525050565b6115f181611b08565b82525050565b6000611604602183611a49565b915061160f82611cb1565b604082019050919050565b6000611627601f83611a49565b915061163282611d00565b602082019050919050565b600061164a603383611a49565b915061165582611d29565b604082019050919050565b600061166d602283611a49565b915061167882611d78565b604082019050919050565b6000611690600283611a38565b915061169b82611dc7565b602082019050919050565b60006116b3602f83611a49565b91506116be82611df0565b604082019050919050565b60006116d6602f83611a49565b91506116e182611e3f565b604082019050919050565b60006116f9601183611a49565b915061170482611e8e565b602082019050919050565b60006020820190506117246000830184611528565b92915050565b600060208201905061173f6000830184611537565b92915050565b60006040820190508181036000830152611760818486611546565b90508181036020830152611773816116ec565b90509392505050565b600060208201905081810360008301526117968184611573565b905092915050565b60006080820190506117b360008301866115ac565b81810360208301526117c58185611573565b905081810360408301526117d881611683565b905081810360608301526117ec8184611573565b9050949350505050565b600060408201905061180b60008301856115bb565b6118186020830184611528565b9392505050565b600060608201905061183460008301866115bb565b6118416020830185611528565b61184e6040830184611528565b949350505050565b600060808201905061186b60008301876115ca565b6118786020830186611528565b6118856040830185611528565b81810360608301526118978184611573565b905095945050505050565b60006080820190506118b760008301876115ca565b6118c46020830186611528565b6118d160408301856115e8565b81810360608301526118e38184611573565b905095945050505050565b600060408201905061190360008301856115d9565b61191060208301846115ac565b9392505050565b60006020820190508181036000830152611930816115f7565b9050919050565b600060208201905081810360008301526119508161161a565b9050919050565b600060208201905081810360008301526119708161163d565b9050919050565b6000602082019050818103600083015261199081611660565b9050919050565b600060208201905081810360008301526119b0816116a6565b9050919050565b600060208201905081810360008301526119d0816116c9565b9050919050565b60006119e16119f2565b90506119ed8282611c11565b919050565b6000604051905090565b600067ffffffffffffffff821115611a1757611a16611c71565b5b611a2082611ca0565b9050602081019050919050565b600081519050919050565b600082825260208201905092915050565b600082825260208201905092915050565b6000611a6582611b08565b9150611a7083611b08565b9250816b7fffffffffffffffffffffff03831360008312151615611a9757611a96611c42565b5b817fffffffffffffffffffffffffffffffffffffffff800000000000000000000000038312600083121615611acf57611ace611c42565b5b828201905092915050565b6000611ae582611b15565b9050919050565b6000819050919050565b6000611b0182611ada565b9050919050565b600081600b0b9050919050565b600073ffffffffffffffffffffffffffffffffffffffff82169050919050565b6000819050919050565b6000611b4a82611b51565b9050919050565b6000611b5c82611b15565b9050919050565b6000611b6e82611b75565b9050919050565b6000611b8082611b15565b9050919050565b6000611b9282611b99565b9050919050565b6000611ba482611b15565b9050919050565b6000611bb682611bbd565b9050919050565b6000611bc882611b15565b9050919050565b82818337600083830152505050565b60005b83811015611bfc578082015181840152602081019050611be1565b83811115611c0b576000848401525b50505050565b611c1a82611ca0565b810181811067ffffffffffffffff82111715611c3957611c38611c71565b5b80604052505050565b7f4e487b7100000000000000000000000000000000000000000000000000000000600052601160045260246000fd5b7f4e487b7100000000000000000000000000000000000000000000000000000000600052604160045260246000fd5b6000601f19601f8301169050919050565b7f5265646972656374416c6c3a206f6e6c7920434641763120737570706f72746560008201527f6400000000000000000000000000000000000000000000000000000000000000602082015250565b7f5265646972656374416c6c3a206e6f7420616363657074656420746f6b656e00600082015250565b7f556e737570706f727465642063616c6c6261636b202d20204265666f7265204160008201527f677265656d656e74205465726d696e6174656400000000000000000000000000602082015250565b7f5265646972656374416c6c3a20737570706f7274206f6e6c79206f6e6520686f60008201527f7374000000000000000000000000000000000000000000000000000000000000602082015250565b7f3078000000000000000000000000000000000000000000000000000000000000600082015250565b7f556e737570706f727465642063616c6c6261636b202d204265666f726520416760008201527f7265656d656e7420757064617465640000000000000000000000000000000000602082015250565b7f556e737570706f727465642063616c6c6261636b202d204265666f726520416760008201527f7265656d656e7420437265617465640000000000000000000000000000000000602082015250565b7f61677265656d656e742063726561746564000000000000000000000000000000600082015250565b611ec081611ada565b8114611ecb57600080fd5b50565b611ed781611aec565b8114611ee257600080fd5b50565b611eee81611af6565b8114611ef957600080fd5b50565b611f0581611b08565b8114611f1057600080fd5b50565b611f1c81611b35565b8114611f2757600080fd5b5056fea26469706673582212208185ec0907ae572902cb42d22957a09dfa3936119869b214ede090256f532e0564736f6c63430008040033",
  "linkReferences": {},
  "deployedLinkReferences": {}
}